:020000040800F2
:100000005004002045010008490C0008410C00087C
:10001000450C0008DD0700080B1A0008000000006E
:10002000000000000000000000000000791100083E
:10003000810A000800000000F10C00088D12000881
:100040005F0100085F0100085F0100085F01000810
:100050005F0100085F010008830A00085F010008D3
:100060005F0100085F0100085F0100085F010008F0
:100070005F0100085F0100085F0100085F010008E0
:100080005F0100085F0100085F0100085F010008D0
:100090005F0100085F0100085F0100085F010008C0
:1000A0005F0100085F0100085F0100085F010008B0
:1000B000F11200085F0100085F0100085F010008FD
:1000C0005F0100085F0100085F0100085F01000890
:1000D0005F010008891700084D1800085F0100083B
:1000E0005F0100085F0100085F0100085F01000870
:1000F0005F0100085F0100085F0100085F01000860
:100100005F0100085F0100085F0100085F0100084F
:100110005F0100085F0100085F0100085F0100083F
:100120005F0100085F0100085F0100085F0100082F
:10013000DFF80CD000F040FB00480047FD1A000833
:10014000500400200648804706480047FEE7FEE7C7
:10015000FEE7FEE7FEE7FEE7FEE7FEE7FEE7FEE777
:100160009112000831010008F0B480EA0102D40FB6
:100170004200B2EB410F02D20246084611464A0045
:1001800042D0C30DDDB2C1F3C752AD1A202D35DA0E
:10019000C1F3160141F4000204B15242C5F1200638
:1001A00002FA06F12A411044B3EBD05F23D0C4B168
:1001B000012DA0EBC35009DCF0BC4FF0004202EA75
:1001C000C352DBB200F5000000F06ABA400000F153
:1001D000807000EBC350A0F1807040EAD1704900FC
:1001E00009E0490841EAC071A0EBC35000F50000E6
:1001F000400800EBC350F0BC00F049BA6142012254
:1002000002EB4101001BF6E7F0BC704781F00041B2
:10021000AAE780F00040A7E72DE9FE4F804681EA7B
:100220000300C00F0C46009021F0004123F0004570
:10023000B8EB0200A94105D24046214690461C4633
:100240000B46024623F00040104347D0270DC7F36A
:100250000A00C3F30A510290401A019040286BDA59
:10026000C3F3130040F4801B0098924620B1002392
:10027000D2EB030A63EB0B0B01985946C0F1400225
:10028000504600F0D3F906460D4650465946019AAD
:1002900000F0EBF910EB08006141002487EA1152ED
:1002A00084EAE7731A4340D0009A62B3019A012AA4
:1002B0004FEA075215DC001B61EB02014FF00042D0
:1002C00002EA0752CDE90042001C41F58011324696
:1002D0002B4600F022FA03B0BDE8F08F40462146DD
:1002E000F9E7001B61EB0201001C41F580130018C7
:1002F0005B412018A2F5001747EB030140EAD570D7
:10030000B6196D4111E06D084FEA360645EAC07531
:100310004FEA0752001B61EB0201001C41F58011FE
:1003200049084FEA30000019514132462B4603B0CC
:10033000BDE8F04F00F0E2B9009801224000002330
:10034000D0EB020263EBE073009821464FEAE074C1
:10035000B8EB000061EB0401E9E783F000435BE7E1
:1003600081F0004158E72DE9FE4F81EA030404F0D3
:10037000004421F0004100944FF0000B23F00043B3
:1003800050EA01045ED052EA03045BD0C3F30A547E
:10039000C1F30A552C44A4F2F3340194A0FB025497
:1003A000C1F3130141F48011C3F3130343F4801329
:1003B00001FB024400FB034E840A970A44EA81547D
:1003C00047EA8357A4FB076802958D0A05FB07855A
:1003D0004FEA932C04FB0C542705029D4FEA065864
:1003E00047EA1637B5EB08056EEB070C870E920E41
:1003F00047EA811742EA8312A7FB0201B6EB0B0121
:1004000064EB00042B0D43EA0C335E1844EB1C50E4
:10041000DA465146E7FB0201C5F313044FEA0B33FA
:1004200043EA14534FEA0432019C43EA0603A4F161
:100430000C040294009CCDE900B400F06EF903B006
:10044000BDE8F08F00200146F9E72DE9F04D81EA83
:10045000030404F0004B21F0004514464FF0000A5D
:1004600023F0004150EA050220D054EA01021DD0D9
:10047000C5F30A570246C5F31303C1F31300C1F3D2
:100480000A5640F4801543F48013A7EB0608101BAE
:10049000D64608F2FD3873EB050002D308F10108D7
:1004A00001E092185B41B8F1000F03DA0020014629
:1004B000BDE8F08D00204FF48011064684460EE022
:1004C000171B73EB050705D3121B63EB05030643EC
:1004D0004CEA010C49084FEA300092185B4150EA9F
:1004E0000107EDD152EA030012D082EA040083EA48
:1004F0000501084305D0101BAB4106D201220023A1
:1005000006E000224FF0004302E06FF001025310BA
:100510001AEB06004CEB085110EB0A0041EB0B0103
:10052000BDE8F04D00F0EAB8C10F80EAE070084481
:10053000CA079623002100F0B3B896230022114683
:1005400000F0AEB80EB540F2334102910021CDE982
:1005500000110A460B4600F0E0F803B000BD00F0C1
:10056000004220F00040C10DC0F3160040F400002E
:100570007F2901DA00207047962903DCC1F196013A
:10058000C84001E096398840002AF4D040427047C4
:1005900070B5C1F30A5201F000450024C1F3130104
:1005A00040F2FF3341F480119A4201DA002070BD1D
:1005B00040F233439A42A2F2334203DC524200F04B
:1005C00044F800E090402C43F1D0404270BD00F070
:1005D000004230F000400AD0C10D01F56071C0F357
:1005E000160042EA0151C20840071143704700203B
:1005F0000146704701F0004330B421F0004150EA59
:10060000010206D00A0DA2F56072C1F31301002A9F
:1006100002DC30BC00207047440F44EAC104C10032
:10062000E01830BC00EBC25000F031B8202A04DBE7
:10063000203A00FA02F1002070479140C2F12003F5
:1006400020FA03F3194390407047202A04DB203A34
:1006500021FA02F00021704721FA02F3D040C2F1E2
:1006600020029140084319467047202A06DBCB1729
:10067000203A41FA02F043EAE07306E041FA02F35D
:10068000D040C2F12002914008431946704700292A
:10069000A8BF7047401C490008BF20F00100704708
:1006A00010B4B0FA80FC00FA0CF050EA010404BF68
:1006B00010BC704749B1CCF1200421FA04F411FABE
:1006C0000CF118BF012121430843A3EB0C01CB1D02
:1006D0004FEA00614FEA102042BF002010BC704773
:1006E00000EBC35010440029A4BF10BC7047401C4D
:1006F000490008BF20F0010010BC704710B5141E5F
:1007000073F1000408DA401C41F1000192185B41CA
:100710001A4301D120F0010010BD2DE9F04D9246A1
:100720009B4611B1B1FA81F202E0B0FA80F22032B8
:100730009046FFF77BFF04460F4640EA0A0041EA75
:100740000B0153465A46084313D0114653EA0100A1
:1007500019D0C8F140025046FFF777FF05460E4614
:10076000504659464246FFF761FF084305D0012035
:1007700004E020463946BDE8F08D0020054346EAF6
:10078000E0762C4337430A986305E40AA0EB08009F
:100790000022FD0A44EA47540A3002D500200146EF
:1007A000E9E7010510196941DDE9084500196941CA
:1007B000BDE8F04DA2E70000064C074D06E0E068FA
:1007C00040F0010394E8070098471034AC42F6D398
:1007D000FFF7B2FC90200008B020000800BFFEE741
:1007E00010B500214FF0804000F0A6FD10BD0000C4
:1007F00010B500241548006820F4704013490860C3
:100800000846006840F40040086004E0601CC4B280
:10081000012001F02DF90E48006808B1C82CF5DB65
:10082000C82C01DB012010BD002404E0601CC4B210
:10083000012001F01DF90648006808B9F02CF5DB2D
:10084000F02C01DB0120EEE70020ECE7040C014076
:100850002C8121422DE9F84F00F0CCF800F0A8F8E7
:10086000FFF7C6FFCC2000F0D1F8BE2000F0CEF894
:1008700000F08CF8834600F089F80446072C08DD68
:10088000E043C4B26FEA0B0000F0FF0B4FF0000A28
:1008900001E04FF0010AA1464FEA09200FFA80F962
:1008A00009EB0B000FFA80F94846FFF73DFE009078
:1008B000FFF78DFE07460022084BFFF754FD054663
:1008C000FFF766FE0FFA80F9BAF1000F02D0484632
:1008D000BDE8F88FC9F1000000B2F9E70000E43F7D
:1008E00008B50121082000F031FA4FF40060ADF89E
:1008F000000010208DF8030003208DF802006946E7
:10090000064800F0E7F84FF40061044800F078F979
:1009100000F04EF8FFF76CFF08BD0000000C01402E
:1009200010B51748006820F4704015490860084663
:10093000006840F44050086000201249086002201E
:1009400001F096F801201049C1F8AC010C4800688C
:1009500020F470400A4908600846006840F40040EE
:1009600008600C2001F084F806488038006808B15F
:10097000012400E00024322001F07AF8204610BD66
:10098000040C0140AC8121420080214270B5002658
:10099000012508E0FFF7C4FF0446E00140EA6600D5
:1009A000C6B2681CC5B2082DF4DD304670BD00002B
:1009B00010B50D48006820F470400B4908600846E7
:1009C000006840F44050086000200849086040F288
:1009D000EE2001F04DF801200549C1F8AC010F20CF
:1009E00001F046F810BD0000040C0140AC8121422A
:1009F0000080214210B5FFF7DBFFFFF7F9FECC20A6
:100A000000F004F8442000F001F810BD70B5044671
:100A10001848006820F470401649086008460068CD
:100A200040F440500860012520E004F00106641005
:100A30006EB1002010490860022001F019F8012071
:100A40000E49C1F8AC013C2001F012F80CE0002086
:100A5000094908603C2001F00BF801200749C1F862
:100A6000AC01022001F004F8681CC5B2082DDCDDE1
:100A700070BD0000040C0140AC8121420080214285
:100A8000704770470549096821F00801034A116061
:100A900011460968014311607047000000200240C0
:100AA0000549096821F01001034A116011460968DF
:100AB0000143116070470000002002400146002001
:100AC000034A106800F038000843106070470000C7
:100AD000002002402DE9F0410246002500260020BA
:100AE00000230024002791F803C00CF00F0591F8B3
:100AF00003C00CF0100CBCF1000F03D091F802C041
:100B00004CEA050591F800C0BCF1000F31D0146823
:100B100000202BE04FF0010C0CFA00F3B1F800C0FC
:100B20000CEA03069E4220D183004FF00F0C0CFA12
:100B300003F7BC4305FA03FC4CEA040491F803C034
:100B4000BCF1280F06D14FF0010C0CFA00FCC2F8E2
:100B500014C00AE091F803C0BCF1480F05D14FF072
:100B6000010C0CFA00FCC2F810C0401C0828D1D3BC
:100B70001460B1F800C0BCF1FF0F34DD54680020F0
:100B80002EE000F1080C4FF0010808FA0CF3B1F860
:100B900000C00CEA03069E4221D183004FF00F0CE7
:100BA0000CFA03F7BC4305FA03FC4CEA040491F881
:100BB00003C0BCF1280F05D100F1080C08FA0CF8AD
:100BC000C2F8148091F803C0BCF1480F07D100F1BE
:100BD000080C4FF0010808FA0CF8C2F81080401C0D
:100BE0000828CED35460BDE8F08102460020936807
:100BF0000B400BB1012000E00020704741617047BD
:100C0000016170470AB1016100E041617047000075
:100C100010B500BF094800884FF47A7100FB01F459
:100C2000C80600F099FC044400204FF080418884FD
:100C3000322000F0FBFE204610BD000044000020E2
:100C400000BFFEE700BFFEE77047000070B500215F
:100C500000230F22C47804B3154C246804F4E06424
:100C6000C4F5E064210AC1F10403CA40447804FADF
:100C700003F184781440214309010E4C0678A155F4
:100C8000047804F01F050124AC4005786D11AD0017
:100C900005F1E025C5F8004109E0047804F01F05DE
:100CA0000124AC40044D0678761145F8264070BD0D
:100CB0000CED00E000E400E080E100E002490143C7
:100CC000024A1160704700000000FA050CED00E0D8
:100CD00010B500214FF0804000F002FD00200349D4
:100CE00008800121880700F027FB10BD4400002088
:100CF0007047000001460020034A506820F440403D
:100D000008435060704700000010024029B1064AB5
:100D1000D2690243044BDA6104E0034AD269824398
:100D2000014BDA61704700000010024029B1064A09
:100D300012690243044B1A6104E0034A12698243B8
:100D4000014B1A61704700000010024029B1064AA9
:100D500092690243044B9A6104E0034A9269824318
:100D6000014B9A61704700000010024029B1064A09
:100D7000D2680243044BDA6004E0034AD26882433B
:100D8000014BDA6070470000001002400F48006815
:100D900040F001000D490860084640680C490840D1
:100DA0000A494860084600680A490840074908603F
:100DB0000846006820F4802008600846406820F457
:100DC000FE0048604FF41F0088607047001002402A
:100DD0000000FFF8FFFFF6FE30B5002100220024DE
:100DE00000232D4D6D6805F00C0121B1042905D0BB
:100DF000082923D105E0294D056022E0274D056033
:100E00001FE0254D6D6805F47012234D6D6805F4E3
:100E10008034022505EB92421CB9214D55430560F3
:100E20000BE01D4D6D6805F400351DB11C4D55439B
:100E3000056002E0194D5543056002E0174D05605D
:100E400000BF00BF144D6D6805F0F0010909154D94
:100E50006B5C0568DD4045600F4D6D6805F4E06131
:100E6000090A104D6B5C4568DD4085600A4D6D6870
:100E700005F46051C90A0B4D6B5C4568DD40C560E7
:100E8000054D6D6805F44041890B074D6B5CC568E5
:100E9000B5FBF3F5056130BD0010024000127A0089
:100EA00000093D000F0000201F00002010B5014682
:100EB0000022002300204A11012A02D1094C236894
:100EC00006E0022A02D1074C236A01E0054C636A5E
:100ED00001F01F02012494401C400CB1012000E0ED
:100EE000002010BD0010024001460020034A506857
:100EF00020F0F000084350607047000000100240EE
:100F00001149096821F480310F4A116011460968BE
:100F100021F480211160B0F5803F03D0B0F5802F1F
:100F20000ED106E00849096841F48031064A116093
:100F300007E00549096841F4A021034A116000E077
:100F400000BF00BF704700000010024001460020B3
:100F5000034A506820F4E060084350607047000086
:100F60000010024001460020034A506820F46050FF
:100F700040EAC10050607047001002400149086615
:100F8000704700000000424202460020044B5868AF
:100F900020F47C1042EA01031843014B586070476B
:100FA0000010024001460020034A506820F0030070
:100FB00008435060704700000010024038B5002020
:100FC00000900024002500BF3120FFF76FFF054689
:100FD0000098401C00900098B0F5A06F01D0002D43
:100FE000F2D03120FFF762FF08B1012400E00024B5
:100FF000204638BD2DE9F84F4FF0000A0024A346E3
:10100000A14639E0012211032448FFF7FBFD14201B
:1010100000F02EFD00224FF480512048FFF7F2FD32
:1010200000BF4FF400511D48FFF7DFFD0028F8D046
:10103000FFF74EFE641C00BF4FF400511748FFF746
:10104000D4FD0128F8D0FFF7CBFBFFF7E1FD824686
:101050005046FFF772FA0090FFF7B9FA07460022F0
:101060000F4BFFF7F2F90546FFF7C4FA83464946EE
:101070005846FFF779F88146052CC3D14846FFF75B
:10108000A6FA07460022074BFFF7DFF90546FFF7F0
:10109000B1FA83465846BDE8F88F0000000C0140C5
:1010A00000004D40000014401FB501210820FFF74B
:1010B0004DFE4FF48050ADF8000003208DF8020083
:1010C00010208DF8030069462048FFF703FD4FF418
:1010D00080511E48FFF792FD4FF40050ADF800001C
:1010E00004208DF8030069461848FFF7F3FC4FF41D
:1010F00000511648FFF782FD01210846FFF706FE62
:101100004FF0804000F034F940F2E730ADF80800CD
:101110004720ADF804000020ADF80A00ADF8060045
:1011200001A94FF0804000F0DDFA0121880700F0AE
:10113000FDF801221146900700F022FA00F008F8AD
:1011400000214FF0804000F0F7F81FBD000C014077
:1011500008B54FF4A060FFF7B1FD1C208DF800002A
:1011600000208DF801008DF8020001208DF80300A9
:101170006846FFF76BFD08BD704710B500F002F838
:1011800010BD00000CB500200190009033480068AD
:1011900040F480303149086000BF3048006800F4F6
:1011A000003000900198401C0190009818B90198F7
:1011B000B0F5A06FF1D12948006800F4003010B1FB
:1011C0000120009001E0002000900098012843D108
:1011D0002348006840F01000214908600846006874
:1011E00020F0030008600846006840F00200086034
:1011F0001A484068194948600846406848600846EF
:10120000406840F4806048600846406820F47C10E4
:1012100048600846406840F4E810486008460068A6
:1012200040F08070086000BF0C48006800F000705B
:101230000028F9D00948406820F0030007494860B9
:101240000846406840F00200486000BF034840681C
:1012500000F00C000828F9D10CBD0000001002407D
:1012600000200240042808D14FF0E021096941F034
:1012700004014FF0E022116107E04FF0E02109691D
:1012800021F004014FF0E022116170477047000027
:1012900010B51348006840F0010011490860084685
:1012A0004068104908400E494860084600680E49E9
:1012B00008400B4908600846006820F48020086058
:1012C0000846406820F4FE0048604FF41F00886024
:1012D000FFF753FF4FF000600449086010BD0000A5
:1012E000001002400000FFF8FFFFF6FE08ED00E0EE
:1012F00010B50121880700F032F940B101218807BB
:1013000000F017F802480088401C0149088010BD11
:101310004400002021B1028842F08002028004E0F3
:1013200002884FF67F731A4002807047CA430282D8
:101330007047CA430282704721B1028842F001021D
:10134000028004E002884FF6FE731A400280704764
:1013500031B1B0F8442042F40042A0F8442005E046
:10136000B0F84420C2F30E02A0F8442070470000F9
:1013700010B504466848844208D10121C014FFF723
:10138000F5FC0021E014FFF7F1FCC4E0B4F1804F5C
:1013900008D101210846FFF7C9FC00210120FFF711
:1013A000C5FCB8E05D48844208D101210220FFF766
:1013B000BDFC00210220FFF7B9FCACE05848844294
:1013C00008D101210420FFF7B1FC00210420FFF720
:1013D000ADFCA0E05348844208D101210820FFF76A
:1013E000A5FC00210820FFF7A1FC94E04E488442B0
:1013F00008D101211020FFF799FC00211020FFF7F0
:1014000095FC88E04948844208D101212020FFF75B
:101410008DFC00212020FFF789FC7CE044488442B9
:1014200008D101214014FFF7A1FC00216014FFF74F
:101430009DFC70E03F48844209D10121C804FFF7B8
:1014400095FC00214FF40020FFF790FC63E03A4840
:10145000844209D101210805FFF788FC00214FF4DF
:101460008010FFF783FC56E03448844209D1012103
:101470004805FFF77BFC00214FF40010FFF776FCD6
:1014800049E02F48844208D101214020FFF74EFC5B
:1014900000214020FFF74AFC3DE02A48844208D161
:1014A00001218020FFF742FC00218020FFF73EFC55
:1014B00031E02548844208D101218015FFF736FC30
:1014C0000021A015FFF732FC25E02048844209D115
:1014D00001210804FFF74AFC00214FF48030FFF798
:1014E00045FC18E01A48844209D101214804FFF75D
:1014F0003DFC00214FF40030FFF738FC0BE01548AD
:10150000844208D101218804FFF730FC00214FF408
:101510008020FFF72BFC10BD002C01400004004090
:1015200000080040000C0040001000400014004083
:1015300000340140004C0140005001400054014083
:1015400000180040001C0040002000400040014006
:1015500000440140004801400146888C704730B586
:101560000246002000230024158A05EA010395891C
:1015700005EA010413B10CB1012000E0002030BDE8
:101580001AB183890B43838102E083898B43838172
:101590007047000070B5002400220023058C4FF630
:1015A000FE7635400584028C8388048B4FF68F7558
:1015B0002C40B51E2C400D882C43751E2A400D89E9
:1015C0002A434D882A43144DA8420BD0134DA842FC
:1015D00008D0134DA84205D0124DA84202D0124D9A
:1015E000A84213D14FF6F7752A404D892A434FF68A
:1015F000FB752A408D882A434FF6FF652B404FF636
:10160000FF552B408D892B43CD892B438380048349
:10161000CD888586028470BD002C014000340140D5
:101620000040014000440140004801400A460021BA
:10163000018B4FF6F7731940114301837047000087
:1016400070B5002200230024058C4EF6FF7635404D
:101650000584038C8488828B48F6FF752A404FF6F8
:10166000FF452A400D884FF6FF7606EA05252A43F6
:101670004DF6FF752B400D8906EA05352B434D8845
:1016800006EA05352B430B4DA84202D00A4DA8426D
:1016900008D14BF6FF752C408D894FF6FF7606EA90
:1016A00085152C4384808283CD88A0F84050038424
:1016B00070BD0000002C0140003401400A460021AA
:1016C000818B4FF2FF7319404FF6FF7303EA022339
:1016D00019438183704781867047A0F84010704796
:1016E00081847047002202881D4B98420ED01D4B0A
:1016F00098420BD0B0F1804F08D01B4B984205D0D8
:101700001A4B984202D01A4B984204D14FF68F736D
:101710001A404B881A43174B984207D0164B9842F1
:1017200004D04FF6FF431A40CB881A4302808B88BF
:1017300083850B8803850A4B98420BD0094B98424E
:1017400008D00E4B984205D00D4B984202D00D4B5D
:10175000984201D10B7A03860123838270470000EF
:10176000002C01400034014000040040000800400B
:10177000000C0040001000400014004000400140F8
:10178000004401400048014010B540F225512B486B
:1017900000F076F800284FD0284800F02DF9C4B2A8
:1017A0002748007840B127482549097844542448FF
:1017B0000078401C224908702148007858B9AA2CAA
:1017C00009D120481E49097844541D480078401C1E
:1017D0001B49087030E01A48007805282CD10D2CE0
:1017E00027D118484078062821D2DFE800F02003EE
:1017F000090F151B13498878002100F0FDFA17E046
:1018000010498878002100F051FB11E00D498878DB
:10181000012100F0F1FA0BE00A498878012100F07B
:1018200045FB05E0074880780749087000E000BFE5
:1018300000BF00200249087010BD000000380140C0
:101840003D000020380000203E000020704721B1FC
:10185000828942F40052828104E082894DF6FF734E
:101860001A408281704702460020B1F5007F00D106
:1018700000BF13880B400BB1012000E0002070472F
:1018800070B50246002400230025002040F66A16A9
:10189000B14200D100BFC1F3421501F01F03012680
:1018A00006FA03F3012D02D19689334006E0022D9A
:1018B00002D1168A334001E0968A33400C12012689
:1018C00006FA04F41688344013B10CB1012000E08C
:1018D000002070BDF0B5034600240026002500203E
:1018E00040F66A17B94200D100BF1846C1F342144E
:1018F00001F01F06012707FA06F5012C01D10C3073
:1019000004E0022C01D1103000E014301AB1076855
:101910002F43076002E00768AF430760F0BD000097
:101920002DE9F04786B005460E460024A24600BFCA
:10193000A1460027B08900B100BF2F462C8A4CF683
:10194000FF700440F08804432C82AC894EF6F310FB
:101950000440B08831890843718908430443AC814D
:10196000AC8A4FF6FF400440B0890443AC8201A822
:10197000FFF732FA1F48874202D1DDF810A001E0DC
:10198000DDF80CA0A88900F4004040B10AEBCA00C1
:1019900000EB0A1031684900B0FBF1F807E00AEBF0
:1019A000CA0000EB0A1031688900B0FBF1F864202E
:1019B000B8FBF0F004012009642101FB1089A8891B
:1019C00000F4004040B1322000EBC900B0FBF1F060
:1019D00000F00700044308E0322000EB0910642106
:1019E000B0FBF1F000F00F0004432C8106B0BDE81D
:1019F000F08700000038014001468888C0F30800E5
:101A00007047C1F308028280704700BFFEE702E022
:101A100008C8121F08C1002AFAD170477047002079
:101A200001E001C1121F002AFBD1704701460F4A95
:101A300012884A434FF0E0235A6100229A611A4605
:101A4000126942F001021A6100BF4FF0E0221069F2
:101A500000F001021AB100F48032002AF5D0002211
:101A60004FF0E0231A619A617047000042000020A5
:101A700001460F4A12784A434FF0E0235A61002290
:101A80009A611A46126942F001021A6100BF4FF0D2
:101A9000E022106900F001021AB100F48032002A3D
:101AA000F5D000224FF0E0231A619A6170470000E0
:101AB0004000002008B501211020FFF747F94FF43E
:101AC0000050ADF8000003208DF8020010208DF8C2
:101AD000030069460848FEF7FDFF4FF48040ADF86B
:101AE000000003208DF8020028208DF803006946CD
:101AF0000148FEF7EFFF08BD0010014000F01EF99D
:101B000000F058F94FF4165000F06EFA00F098F813
:101B1000FFF7CAFA4FF4165000F028FA4FF47A7023
:101B2000FFF784FF0AE0FF204049C870887008462C
:101B300000F0E4F84FF4C870FFF778FFFEF7D0FE2E
:101B40000028F0D1FFF7B6FF40F2AA513848FFF75E
:101B5000C2FD4FF4FA60FFF769FF00215A2000F040
:101B60004BF940F6B830FFF761FF0021B42000F0D8
:101B70009DF941F28830FFF759FF00215A2000F00B
:101B80003BF940F6B830FFF751FF40F2AA51284820
:101B9000FFF7A3FD4FF4FA60FFF748FF01215A2039
:101BA00000F02AF940F6B830FFF740FF0121B420D9
:101BB00000F07CF941F28830FFF738FF01211E2048
:101BC00000F01AF940F6B830FFF730FF2CE0FEF7CE
:101BD00041FE18490880084600781449C870154825
:101BE0000088000A8870084600F088F8FFF702FABB
:101BF0000446FEF7B4FC1049086008460068FA285D
:101C000001DDFA2008600C48008881B20B48FFF71C
:101C1000F8FE00BF80210948FFF725FE0028F9D013
:101C200040F6C410FFF702FFD1E700000A000020D1
:101C3000002C014008000020040000200044004067
:101C400000B589B00121C802FFF780F80121042006
:101C5000FFF77CF84FF48070ADF8200018208DF865
:101C6000230003208DF8220008A92248FEF732FF46
:101C70004FF40060ADF8200008A91E48FEF72AFFC7
:101C800040F6B730ADF818004720ADF8140000203A
:101C9000ADF81A00ADF8160005A91748FFF722FDA8
:101CA0007020ADF804000120ADF806000020ADF86A
:101CB0000A00ADF80C0001A90F48FFF76BFC01A961
:101CC0000D48FFF7BDFC01210B48FFF741FB082140
:101CD0000948FFF7ABFC08210748FFF7EFFC01219B
:101CE0000548FFF717FB01210348FFF725FB09B063
:101CF00000BD000000080140002C014070B5044602
:101D00000526002504E014F8010B00F005F86D1C11
:101D1000B542F8DB70BD000070B504462546294683
:101D20000548FFF76EFE00BF80210348FFF79BFDCB
:101D30000028F9D070BD00000038014010B5FFF751
:101D400025F84FF48030FFF7DBF800BFFFF736F9D6
:101D50000128FBD10220FEF7B1FE1020FEF7A0FE05
:101D60004FF4E0114FF48030FFF70EF90120FFF738
:101D700005F900BF3920FFF799F80028FAD00020B4
:101D8000FFF7B2F80020FFF7EDF84FF48060FFF79F
:101D9000DDF84FF40040FEF7ADFF0220FEF78EFEA7
:101DA0000020FEF76FFE1020FEF77AFE0220FFF7FC
:101DB000F9F810BD10B56FF00400FFF753FA0A48A8
:101DC00000680A49B0FBF1F009490870084600783C
:101DD00000EB4001C1EBC0104FF6FF7101EAC000FB
:101DE0000449088010BD00002400002000127A0081
:101DF00040000020420000202DE9FC4781468A4631
:101E0000BAF1000F22D023480078484421490870D5
:101E100008460078A02801DDA02008701D48007841
:101E2000FEF790FB07461C4A1C4BFEF79CFA054642
:101E300000221B4BFEF7F0F9CDE90001FEF7A8FBED
:101E40000446A1B21748FFF748FC21E01648007885
:101E500048441549087008460078B42801DDB420CC
:101E6000087011480078FEF76DFB05460A4A0B4BD7
:101E7000FEF779FA07460022094BFEF7CDF9CDE9C6
:101E80000001FEF785FB0446A1B20648FFF723FCDC
:101E9000BDE8FC8701000020AC1C5A643B9F254034
:101EA00000307F40002C0140000000202DE9FC475D
:101EB00004468A46BAF1000F25D026480078A04291
:101EC00003DA00202349087004E022480078001B50
:101ED000204908701F480078FEF734FB07461E4A69
:101EE0001E4BFEF740FA054600221D4BFEF794F903
:101EF000CDE90001FEF74CFB81461FFA89F1194834
:101F0000FFF7EBFB24E018480078A04203DA00203A
:101F10001549087004E014480078001B1249087045
:101F200011480078FEF70EFB05460B4A0B4BFEF7F7
:101F30001AFA074600220A4BFEF76EF9CDE90001B6
:101F4000FEF726FB81461FFA89F10648FFF7C3FB1F
:101F5000BDE8FC8701000020AC1C5A643B9F254073
:101F600000307F40002C01400000002010B586B0FA
:101F7000044601210420FEF7E9FE01214804FEF792
:101F8000C5FE0420ADF8140003208DF816001820BB
:101F90008DF8170005A91248FEF79CFD0820ADF842
:101FA000140004208DF8170005A90D48FEF792FDD6
:101FB00001940020ADF80800ADF80A00ADF80C005F
:101FC000ADF810000C20ADF80E0001A90548FFF790
:101FD000A7FC01210348FFF73AFC06B010BD000042
:101FE000000801400044004010B586B004460121BD
:101FF00044F20400FEF7AAFE4FF40070ADF814009E
:1020000003208DF8160018208DF8170005A91E482A
:10201000FEF760FD4FF48060ADF8140004208DF8E9
:10202000170005A91848FEF755FD01940020ADF8EA
:102030000800ADF80A00ADF80C00ADF810000C2057
:10204000ADF80E0001A91148FFF76AFC012240F229
:1020500025510E48FFF73EFC01210C48FFF7F7FB26
:102060004FF4C060FEF72AFE25208DF80000002006
:102070008DF801008DF8020001208DF803006846FC
:10208000FEF7E4FD06B010BD000801400038014035
:10209000B0200008000000204C0000000E1A0008CC
:1020A000FC2000084C000020040400001E1A000858
:1020B0005A5A0000000000000000AA0000000D00B5
:1020C00000000001020304010203040607080902DC
:1020D0000406080000A24A040000000000000000FE
:1020E00001020304060708090000000000000A00BE
:0C20F0000000000000000000FA000000EA
:0400000508000131BD
:00000001FF
